:100000000C944A000C94590A0C94590A0C94590AFD
:100010000C94590A0C94590A0C94590A0C94590AD4
:100020000C94590A0C94590A0C94590A0C942509F9
:100030000C94590A0C94590A0C94590A0C94590AB4
:100040000C94590A0C94590A0C94590A0C94590AA4
:100050000C94160A0C94590A0C94590A0C94590AD7
:100060000C94590A0C94590A0100011D0014B601A0
:100070001D0131800131013200015501320134800E
:10008000013401360014D3013601388001380139BA
:100090000014D50011241FBECFEFD8E0DEBFCDBFC6
:1000A000E8E6F0E040E017C0B591A59135912591C3
:1000B000059107FD0CC095918591EF01F92FE82F6F
:1000C00005900D92A217B307D9F7FE0104C01D9247
:1000D000A217B307E1F7E339F40731F70E941B08D1
:0800E0000C947200F894FFCFAC
:1000E80053656E686120420053656E686120430065
:1000F80074372E70773D310074322E70773D3100A1
:100108005072657373696F6E65207465636C6120E6
:1001180042005072657373696F6E65207465636C15
:1001280061204300506C6179657220422070726FC3
:100138006E746F00506C6179657220432070726F25
:040148006E746F0062
:09014C002E7478743D0025640056
:0101550001A8
:100156004A9B90C080913101813009F08BC082E0CA
:10016600809331018BB18B7F8BB98BB188608BB952
:100176008BB180618BB98BB180628BB94E9908C007
:1001860080913001811104C081E0809330013DC02F
:100196004E9B13C080913001882379F01092300174
:1001A60081E00E9471082FEF80E792E021508040A5
:1001B6009040E1F700C0000028C04F9908C0809128
:1001C6002F01811104C081E080932F011EC04F9B37
:1001D60013C080912F01882379F010922F0184E0BB
:1001E6000E9471082FEF80E792E0215080409040F6
:1001F600E1F700C0000009C0189907C080912E01E0
:10020600811103C081E080932E01189B13C0809159
:100216002E01882379F010922E0187E00E94710842
:100226002FEF80E792E0215080409040E1F700C038
:1002360000000895199908C080912D01811104C00C
:1002460081E080932D010895199BC8C180912D01ED
:10025600882309F4C3C110922D018BE00E94710816
:100266002FEF80E792E0215080409040E1F700C0F8
:10027600000008954B9B90C080913101823009F0B7
:100286008BC083E0809331018BB184608BB98BB1D5
:10029600877F8BB98BB180618BB98BB180628BB94B
:1002A6004E9908C080912C01811104C081E0809391
:1002B6002C013DC04E9B13C080912C01882379F000
:1002C60010922C0182E00E9471082FEF80E792E0E5
:1002D600215080409040E1F700C0000028C04F99AF
:1002E60008C080912B01811104C081E080932B010D
:1002F6001EC04F9B13C080912B01882379F010926A
:100306002B0185E00E9471082FEF80E792E02150D3
:1003160080409040E1F700C0000009C0189907C06E
:1003260080912A01811103C081E080932A01189BE4
:1003360013C080912A01882379F010922A0188E05F
:100346000E9471082FEF80E792E021508040904094
:10035600E1F700C000000895199908C080912901AD
:10036600811104C081E0809329010895199B36C14B
:1003760080912901882309F431C11092290180E076
:100386000E9471082FEF80E792E021508040904054
:10039600E1F700C0000008954C9B90C080913101A8
:1003A600833009F08BC084E0809331018BB1846087
:1003B6008BB98BB188608BB98BB18F7E8BB98BB1C2
:1003C60080628BB94E9908C080912801811104C0C2
:1003D60081E0809328013DC04E9B13C08091280187
:1003E600882379F01092280183E00E9471082FEF8C
:1003F60080E792E0215080409040E1F700C0000085
:1004060028C04F9908C080912701811104C081E05E
:10041600809327011EC04F9B13C08091270188231C
:1004260079F01092270186E00E9471082FEF80E78D
:1004360092E0215080409040E1F700C0000009C0E2
:10044600189907C080912601811103C081E080932D
:100456002601189B13C080912601882379F01092FB
:10046600260189E00E9471082FEF80E792E0215073
:1004760080409040E1F700C000000895199908C037
:1004860080912501811104C081E0809325010895A2
:10049600199BA4C080912501882309F49FC010925E
:1004A60025018CE00E9471082FEF80E792E0215031
:1004B60080409040E1F700C0000008954D9B8EC03B
:1004C60080913101843009F089C081E08093310147
:1004D6008BB184608BB98BB188608BB98BB180612D
:1004E6008BB98BB18F7D8BB94E9908C08091240151
:1004F600811104C081E0809324013DC04E9B13C04E
:1005060080912401882379F01092240181E10E94D0
:1005160071082FEF80E792E0215080409040E1F78C
:1005260000C0000028C04F9908C0809123018111A6
:1005360004C081E0809323011EC04F9B13C08091AD
:100546002301882379F0109223018EE00E9471081E
:100556002FEF80E792E0215080409040E1F700C005
:10056600000009C0189907C080912201811103C0BB
:1005760081E080932201189B13C080912201882379
:1005860079F0109222018FE00E9471082FEF80E728
:1005960092E0215080409040E1F700C000000895AD
:1005A600199908C080912101811104C081E08093CE
:1005B60021010895199B12C080912101882371F0B1
:1005C6001092210180E10E9471082FEF80E792E0EE
:0E05D600215080409040E1F700C000000895E1
:1005E4002F923F924F926F927F928F929F92AF92EF
:1005F400BF92CF92DF92EF92FF920F931F93CF930C
:10060400DF93CDB7DEB762970FB6F894DEBF0FBEA7
:10061400CDBF6C013A01862E7901FC011086178248
:10062400848181FFE7C19E012F5F3F4F3D872C8767
:10063400C901A0E8888B998BAA8B9FE3992EF301BB
:10064400849187FC8081882309F4D0C1482D9301CB
:100654002F5F3F4F4F4F853219F03901842E0AC066
:10066400F901849147FD808192E0690E711C811C1F
:10067400853229F4B60190E00E94B508E0CFB12C90
:1006840000E010E01032A0F48B3269F030F48032D4
:1006940059F0833269F410612CC08D3239F0803303
:1006A40039F4116026C01260146023C0186021C0A0
:1006B40017FD29C090ED980F9A3078F416FF06C004
:1006C400AAE0BA9E900D1124B92E13C0EAE00E9F41
:1006D400900D1124092F10620CC08E3221F416FDE6
:1006E40085C1106406C08C3611F4106802C08836C7
:1006F40051F4F301849187FC8081FFEF6F1A7F0A24
:100704008F0A8111BFCF982F9F7D9554933028F481
:1007140024E0E20EF11C99820FC0833631F0833756
:1007240091F0833509F063C027C0F7018081898384
:1007340097012E5F3F4F7901288839884A88AA2477
:10074400A394B12C17C0A7014D5F5F4F5F874E87FD
:10075400F70120803180428016FF03C04B2D50E00A
:1007640002C04FEF5FEF842DB1010E94B3095C0119
:10077400EE84FF841F7718C097012D5F3F4F3F879A
:100784002E87F70120803180428016FF03C04B2D55
:1007940050E002C04FEF5FEF842DB1010E94B30916
:1007A4005C011068EE84FF8413FD1DC0802F90E06F
:1007B400A816B906C0F4B60180E290E00E94B5081C
:1007C4000150F4CFF101849147FC8081FFEF2F1A8F
:1007D4003F0A4F0AB60190E00E94B508011101508A
:1007E40021E0A21AB108A114B10461F7F5C084365E
:1007F40011F0893671F5F70117FF08C06081718126
:100804008281938197012C5F3F4F09C06081718180
:10081400072E000C880B990B97012E5F3F4F79012F
:100824001F76312E97FF0AC090958095709561953B
:100834007F4F8F4F9F4F312F3068332E2AE030E0A7
:10084400AE014F5F5F4F0E946407482E4C85441AE7
:100854004AC0853729F41F7EA12E2AE030E025C046
:10086400512F597FA52E8F36C1F018F4883579F0B1
:10087400BDC0803719F0883721F0B8C0852F80615A
:10088400A82EA4FE0DC09A2D9460A92E09C014FFB1
:100894000AC0A52FA660AA2E06C028E030E005C035
:1008A40020E130E002C020E132E0F701A7FE08C0F9
:1008B4006081718182819381A7014C5F5F4F07C082
:1008C4006081718180E090E0A7014E5F5F4F7A0103
:1008D400AE014F5F5F4F0E946407482E5C85451A46
:1008E4008A2D8F77382E36FE0DC0932D9E7FA92E2C
:1008F4004B1458F434FE0BC032FC09C0A32DAE7E59
:10090400AA2E05C0142DA32C03C0142D01C01B2D29
:10091400A4FE0EC0FE01E40DF11D8081803321F49C
:10092400EA2DE97EAE2E08C0A2FE05C01E5F04C0FB
:100934008A2D867809F01F5FA3FC11C0A0FE06C0B3
:10094400101788F4040DB02EB11A0EC0101760F4FD
:10095400B60180E290E00E94B5081F5FF7CF101740
:1009640018F4011B02C0B42C00E0A4FE10C0B601B0
:1009740080E390E00E94B508A2FE17C0A1FC03C06A
:1009840088E790E002C088E590E0B6010CC08A2DAB
:10099400867859F0A1FE02C08BE201C080E2A7FC78
:1009A4008DE2B60190E00E94B5084B1438F4B6010C
:1009B40080E390E00E94B508BA94F7CF4A94E1E04E
:1009C400F0E0EC0FFD1FE40DF11D8081B60190E015
:1009D4000E94B5084110F2CF002309F430CEB601CD
:1009E40080E290E00E94B5080150F6CFF6018781BD
:1009F400908502C08FEF9FEF62960FB6F894DEBF2A
:100A04000FBECDBFDF91CF911F910F91FF90EF905B
:100A1400DF90CF90BF90AF909F908F907F906F901A
:080A24004F903F902F900895C0
:100A2C00CF93DF9300D000D000D0CDB7DEB78CE3EE
:100A3C0090E09A8389838EE390E09C838B838DE393
:100A4C0090E09E838D8380911D01811107C0809160
:100A5C0032010E94510981E080931D018091320185
:100A6C0081115DC080913701803109F0B4C01092C2
:100A7C006F002FEF30E782E0215030408040E1F7EB
:100A8C0000C000009091360180913501981768F4F0
:100A9C00BE016F5F7F4F88E091E00E94050781E007
:100AAC00809332010E9451092DC090913601891713
:100ABC0068F4BE016D5F7F4F88E091E00E940507EE
:100ACC0081E0809332010E9451091CC09091360143
:100ADC00891318C0BE016B5F7F4F88E091E00E94C4
:100AEC00050781E0809332010E9451099AEA26EEB3
:100AFC0036E981E09150204030408040D9F7000029
:100B0C000E9411069FEF20E732E0915020403040C8
:100B1C00E1F700C0000082E080936F005CC0809120
:100B2C003701803109F057C010926F008FEF90E7BA
:100B3C0022E0815090402040E1F700C000009091ED
:100B4C00360180913401981768F4BE016F5F7F4FB6
:100B5C0080E091E00E9405071092320180E00E9433
:100B6C0051092DC090913601891768F4BE016D5F53
:100B7C007F4F80E091E00E9405071092320180E0E7
:100B8C000E9451091CC090913601891318C0BE01F6
:100B9C006B5F7F4F80E091E00E940507109232015D
:100BAC0080E00E9451093AEA86EE96E921E0315044
:100BBC00804090402040D9F700000E9411063FEF82
:100BCC0080E792E0315080409040E1F700C0000097
:100BDC0082E080936F00809137018B3021F48091FB
:100BEC0032010E945109809137018C3011F40E941E
:100BFC0011062FEF31EE84E0215030408040E1F7B8
:100C0C0000C0000026960FB6F894DEBF0FBECDBF15
:060C1C00DF91CF91089565
:100C2200CF93DF93CDB7DEB7A6970FB6F894DEBFAA
:100C32000FBECDBF28EE30E040E088E0F901DE01D2
:100C42001196742F0E94410A20EF30E040E088E0C4
:100C5200F901DE011996742F0E94410A28EF30E053
:100C620040E088E0F901DE015196742F0E94410AAA
:100C720020E031E040E088E0F901DE015996742F6E
:100C82000E94410A8FEF9FEF9AA389A38FEF90E012
:100C92009CA38BA380E290E09EA38DA3BE016B5D1B
:100CA2007F4F88E091E00E940507BE016B5D7F4F98
:100CB20080E091E00E940507BE016F5F7F4F8AE1ED
:100CC20091E00E940507BE01675F7F4F87E191E0D7
:100CD2000E940507BE016B5D7F4F81E191E00E949A
:100CE2000507BE016B5D7F4F81E191E00E94050720
:100CF200CE0141960E94000ACE0181960E94000A0E
:100D0200CE0149960E94000ACE0181960E94000AF5
:100D1200109233011092360110923701A6960FB647
:0E0D2200F894DEBF0FBECDBFDF91CF910895D4
:100D3000CF93DF93CDB7DEB7A0970FB6F894DEBFA1
:100D40000FBECDBF2CE231E040E080E1F901DE01D1
:100D50001196742F0E94410A2CE331E040E080E1BB
:100D6000F901DE015196742F0E94410A80913701EA
:100D70008E3071F480911F0181110AC081E080934F
:100D80001F01BE016F5F7F4F81E191E00E94050767
:100D9000809137018F3071F480911E0181110AC05A
:100DA00081E080931E01BE016F5E7F4F8BE091E07A
:100DB0000E94050780911F018823A9F080911E01E0
:100DC000882389F06091350170E084E191E00E9410
:100DD000F1086091340170E08EE091E00E94F1082A
:100DE00081E0809333012FEF80E792E02150804033
:100DF0009040E1F700C00000A0960FB6F894DEBF67
:0A0E00000FBECDBFDF91CF91089522
:100E0A00CF92DF92EF920F931F93CF93DF93CDB7D9
:100E1A00DEB7EA970FB6F894DEBF0FBECDBFAC01BE
:100E2A008B0182E290E09CAB8BAB0F2EFCE4CF2EC1
:100E3A00F1E0DF2EF0E0EF2EF02D86E0F601DE0184
:100E4A00D5967E2D0E94410A60E8CE0101960E9445
:100E5A00250AAE014B5C5F4F60E8CE0101960E9405
:100E6A00E9096E0183E3C80ED11C80E8E82E6E2DD5
:100E7A00A601CE0101960E94E909A80160E8CE0107
:100E8A0001960E94E9096E2DA601CE0101960E94E3
:100E9A00E909CE0101960E94000A84E091E00E94CD
:100EAA00000AEA960FB6F894DEBF0FBECDBFDF91F7
:0E0EBA00CF911F910F91EF90DF90CF90089590
:100EC800FA01AA27283051F1203181F1E8946F9373
:100ED8006E7F6E5F7F4F8F4F9F4FAF4FB1E03ED019
:100EE800B4E03CD0670F781F891F9A1FA11D680FB7
:100EF800791F8A1F911DA11D6A0F711D811D911DEA
:100F0800A11D20D009F468943F912AE0269F11245E
:100F18003019305D3193DEF6CF010895462F4770C2
:100F2800405D4193B3E00FD0C9F7F6CF462F4F701D
:100F3800405D4A3318F0495D31FD4052419302D07B
:100F4800A9F7EACFB4E0A695979587957795679521
:100F5800BA95C9F700976105710508959B01AC0121
:100F68000A2E06945795479537952795BA95C9F748
:0C0F7800620F731F841F951FA01D0895B9
:100F8400CF93DF93CDB7DEB7A6970FB6F894DEBF45
:100F94000FBECDBF28E031E040E082E1F901DE017F
:100FA4001196742F0E94410A2AE131E040E082E167
:100FB400F901DE015396742F0E94410A80E290E009
:100FC4009EA38DA3BE016F5F7F4F81E191E00E94DC
:100FD4000507BE016D5E7F4F8BE091E00E9405071F
:100FE4002FEF85EA9EE0215080409040E1F700C059
:100FF4000000BE016B5D7F4F81E191E00E94050717
:10100400BE016B5D7F4F8BE091E00E9405072FEFDF
:1010140085EA9EE0215080409040E1F700C0000046
:10102400A6960FB6F894DEBF0FBECDBFDF91CF9169
:0210340008951D
:1010360084B1806284B98AB184608AB98AB18860D1
:101046008AB98AB180618AB98AB180628AB98AB15D
:101056008F7B8AB98AB18F778AB984B18E7F84B93A
:1010660084B18D7F84B91BB815B88BB184608BB9F8
:1010760010928000E1E8F0E08081846080838081C6
:101086008D7F808380818E7F808310928500109271
:10109600840088EE93E0909389008093880082E034
:1010A60080936F00789487E690E00E944E0A0E9433
:1010B60011068091330181110EC080913701811193
:1010C60003C00E94C207F5CF80913701882389F3B8
:0C10D6000E949806EECF0E941605EBCF9A
:1010E20010926F008093370190913301992379F127
:1010F2009091200191110DC08A30B0F4880F982F81
:10110200990F990F890F8093360181E08093200116
:101112000BC08A3048F49091370180913601890FD3
:10112200809336011092200180913201811108C012
:101132006091360170E081E191E00E94F10807C000
:101142006091360170E08BE091E00E94F1082FEF90
:1011520084E39CE0215080409040E1F700C0000011
:0811620082E080936F00089504
:10116A000F931F93CF93DF93FB01248121FD03C0CB
:10117A008FEF9FEF2CC022FF16C047815085258133
:10118A0036814217530744F4A081B1819D012F5F34
:10119A003F4F318320838C93278130852F5F3F4FC8
:1011AA003087278314C08B01EC01FB010184F2858F
:1011BA00E02D0995892BE1F6D80117968D919C911E
:1011CA001897019618969C938E931797CE01DF91E4
:0811DA00CF911F910F910895C0
:1011E200EF92FF920F931F93CF93DF93CDB7DEB7AA
:1011F200E2970FB6F894DEBF0FBECDBF7C017F939E
:101202006F9382E591E0A0E0AF939F938F938E015D
:101212000F5F1F4F1F930F930E947409B801C701FC
:101222000E9405070FB6F894DEBF0FBECDBFE2964F
:101232000FB6F894DEBF0FBECDBFDF91CF911F91E5
:081242000F91FF90EF90089559
:10124A001F920F920FB60F9211242F933F934F9331
:10125A005F936F937F938F939F93AF93BF93EF9314
:10126A00FF930E94AB0095B180E2892785B910925D
:10127A00850010928400FF91EF91BF91AF919F91E9
:10128A008F917F916F915F914F913F912F910F9025
:08129A000FBE0F901F90189584
:1012A200CF93DF9300D0CDB7DEB720E330E03A83AF
:1012B20029831092360110923701811108C0BE01B4
:1012C2006F5F7F4F81E191E00E94050707C0BE0179
:1012D2006F5F7F4F8BE091E00E9405070F900F90A8
:0612E200DF91CF91089599
:1012E800AFE0B0E0EAE7F9E00C94A5090E891F89A0
:1012F80086E08D831A8309838FEF9FE79F838E8310
:101308009E01255E3F4F488D598D6A8DCE0101960D
:101318000E94F202E885F985E00FF11F10822F96EE
:06132800E4E00C94DC0976
:10132E002F923F924F925F926F927F928F929F92E7
:10133E00AF92BF92CF92DF92EF92FF920F931F93D5
:10134E00CF93DF93CDB7DEB7CA1BDB0B0FB6F89486
:08135E00DEBF0FBECDBF0994F4
:10136600CF92DF92EF926B01E82EA82FCB014115A9
:10137600510531F48C199D09EF90DF90CF900895B7
:10138600FC012491A7FD20812223A1F30196A11D32
:0613960041505109ECCFAB
:10139C002A88398848885F846E847D848C849B84F9
:1013AC00AA84B984C884DF80EE80FD800C811B8107
:1013BC00AA81B981CE0FD11D0FB6F894DEBF0FBE36
:0613CC00CDBFED01089504
:1013D2009A01462FDC01BD016F5F7F4F5C9155235F
:1013E20011F0DB01F8CFF901549147FD50815D9373
:0E13F200552321F02F5F3F4F4F4FF5CF089549
:101400000F931F93CF93DF938C01C0E0D0E003C014
:101410000E94340A2196F801EC0FFD1F8081811192
:0C142000F7CFDF91CF911F910F9108953D
:10142C001F920F920FB60F9211248F9381E080932D
:0E143C0038018F910F900FBE0F901F901895E2
:10144A009A01462FDC01F901549147FD50815D93C1
:0E145A00552321F02F5F3F4F4F4FF5CF0895E0
:10146800109238019091C00095FFFCCF90913801FF
:0A147800913011F08093C600089532
:10148200992777FD05C005900D920197E1F7089520
:0A14920001900D920197E1F7089513
:10149C009093C5008093C40088E08093C10086E0DF
:0614AC008093C2000895C8
:0414B2000C94000096
:0414B600743130005D
:0414BA00FFFFFF0031
:0314BE007439007E
:0314C10074340080
:0314C4007432007F
:0314C70074350079
:0314CA0074370074
:0314CD0074330075
:0314D0007436006F
:0114D3002EEA
:0114D40020F7
:0114D5000115
:00000001FF
