:100000000C9446000C94610B0C94610B0C94610BE6
:100010000C94610B0C94610B0C94610B0C94610BB0
:100020000C94610B0C94610B0C94610B0C94A10962
:100030000C94610B0C94610B0C94610B0C94610B90
:100040000C94610B0C94610B0C94610B0C94610B80
:100050000C94F40A0C94610B0C94610B0C94610BDE
:100060000C94610B0C94610B0100010180010101F2
:10007000220016C601220135800135013600014DEE
:100080000136013D80013D013E0016E711241FBEEF
:10009000CFEFD8E0DEBFCDBFE8E6F0E040E017C02C
:1000A000B591A59135912591059107FD0CC09591CC
:1000B0008591EF01F92FE82F05900D92A217B30754
:1000C000D9F7FE0104C01D92A217B307E1F7EC387F
:1000D000F40731F70E9499080C946E00F894FFCF52
:1000E00053656E686120420053656E68612043006D
:1000F00074372E70773D310074322E70773D3100A9
:100100005072657373696F6E65207465636C6120EE
:1001100042005072657373696F6E65207465636C1D
:1001200061204300506C6179657220422070726FCB
:100130006E746F00506C6179657220432070726F2D
:040140006E746F006A
:090144002E7478743D002564005E
:01014D0001B0
:10014E004A9B90C080913501813009F08BC082E0CE
:10015E00809335018BB18B7F8BB98BB188608BB956
:10016E008BB180618BB98BB180628BB94E9908C00F
:10017E0080913401811104C081E0809334013DC02F
:10018E004E9B13C080913401882379F01092340174
:10019E0081E00E94E7082FEF80E792E02150804037
:1001AE009040E1F700C0000028C04F9908C0809130
:1001BE003301811104C081E0809333011EC04F9B37
:1001CE0013C080913301882379F01092330184E0BB
:1001DE000E94E7082FEF80E792E021508040904088
:1001EE00E1F700C0000009C0189907C080913201E4
:1001FE00811103C081E080933201189B13C080915E
:10020E003201882379F01092320187E00E94E708CC
:10021E002FEF80E792E0215080409040E1F700C040
:10022E0000000895199908C080913101811104C010
:10023E0081E0809331010895199BC8C180913101ED
:10024E00882309F4C3C1109231018BE00E94E708A4
:10025E002FEF80E792E0215080409040E1F700C000
:10026E00000008954B9B90C080913501823009F0BB
:10027E008BC083E0809335018BB184608BB98BB1D9
:10028E00877F8BB98BB180618BB98BB180628BB953
:10029E004E9908C080913001811104C081E0809395
:1002AE0030013DC04E9B13C080913001882379F000
:1002BE001092300182E00E94E7082FEF80E792E073
:1002CE00215080409040E1F700C0000028C04F99B7
:1002DE0008C080912F01811104C081E080932F010D
:1002EE001EC04F9B13C080912F01882379F010926E
:1002FE002F0185E00E94E7082FEF80E792E0215062
:10030E0080409040E1F700C0000009C0189907C076
:10031E0080912E01811103C081E080932E01189BE4
:10032E0013C080912E01882379F010922E0188E05F
:10033E000E94E7082FEF80E792E021508040904026
:10034E00E1F700C000000895199908C080912D01B1
:10035E00811104C081E080932D010895199B36C14F
:10036E0080912D01882309F431C110922D0180E076
:10037E000E94E7082FEF80E792E0215080409040E6
:10038E00E1F700C0000008954C9B90C080913501AC
:10039E00833009F08BC084E0809335018BB184608B
:1003AE008BB98BB188608BB98BB18F7E8BB98BB1CA
:1003BE0080628BB94E9908C080912C01811104C0C6
:1003CE0081E080932C013DC04E9B13C080912C0187
:1003DE00882379F010922C0183E00E94E7082FEF1A
:1003EE0080E792E0215080409040E1F700C000008D
:1003FE0028C04F9908C080912B01811104C081E063
:10040E0080932B011EC04F9B13C080912B0188231C
:10041E0079F010922B0186E00E94E7082FEF80E71B
:10042E0092E0215080409040E1F700C0000009C0EA
:10043E00189907C080912A01811103C081E0809331
:10044E002A01189B13C080912A01882379F01092FB
:10045E002A0189E00E94E7082FEF80E792E0215001
:10046E0080409040E1F700C000000895199908C03F
:10047E0080912901811104C081E0809329010895A2
:10048E00199BA4C080912901882309F49FC0109262
:10049E0029018CE00E94E7082FEF80E792E02150BF
:1004AE0080409040E1F700C0000008954D9B8EC043
:1004BE0080913501843009F089C081E08093350147
:1004CE008BB184608BB98BB188608BB98BB1806135
:1004DE008BB98BB18F7D8BB94E9908C08091280155
:1004EE00811104C081E0809328013DC04E9B13C052
:1004FE0080912801882379F01092280181E10E94D1
:10050E00E7082FEF80E792E0215080409040E1F71E
:10051E0000C0000028C04F9908C0809127018111AA
:10052E0004C081E0809327011EC04F9B13C08091B1
:10053E002701882379F0109227018EE00E94E708A8
:10054E002FEF80E792E0215080409040E1F700C00D
:10055E00000009C0189907C080912601811103C0BF
:10056E0081E080932601189B13C080912601882379
:10057E0079F0109226018FE00E94E7082FEF80E7B6
:10058E0092E0215080409040E1F700C000000895B5
:10059E00199908C080912501811104C081E08093D2
:1005AE0025010895199B12C080912501882371F0B1
:1005BE001092250180E10E94E7082FEF80E792E07C
:0E05CE00215080409040E1F700C000000895E9
:1005DC002F923F924F926F927F928F929F92AF92F7
:1005EC00BF92CF92DF92EF92FF920F931F93CF9314
:1005FC00DF93CDB7DEB762970FB6F894DEBF0FBEB0
:10060C00CDBF6C013A01862E7901FC011086178250
:10061C00848181FFE7C19E012F5F3F4F3D872C876F
:10062C00C901A0E8888B998BAA8B9FE3992EF301C3
:10063C00849187FC8081882309F4D0C1482D9301D3
:10064C002F5F3F4F4F4F853219F03901842E0AC06E
:10065C00F901849147FD808192E0690E711C811C27
:10066C00853229F4B60190E00E943109E0CFB12C1B
:10067C0000E010E01032A0F48B3269F030F48032DC
:10068C0059F0833269F410612CC08D3239F080330B
:10069C0039F4116026C01260146023C0186021C0A8
:1006AC0017FD29C090ED980F9A3078F416FF06C00C
:1006BC00AAE0BA9E900D1124B92E13C0EAE00E9F49
:1006CC00900D1124092F10620CC08E3221F416FDEE
:1006DC0085C1106406C08C3611F4106802C08836CF
:1006EC0051F4F301849187FC8081FFEF6F1A7F0A2C
:1006FC008F0A8111BFCF982F9F7D9554933028F48A
:10070C0024E0E20EF11C99820FC0833631F083375E
:10071C0091F0833509F063C027C0F701808189838C
:10072C0097012E5F3F4F7901288839884A88AA247F
:10073C00A394B12C17C0A7014D5F5F4F5F874E8705
:10074C00F70120803180428016FF03C04B2D50E012
:10075C0002C04FEF5FEF842DB1010E94520A5C0181
:10076C00EE84FF841F7718C097012D5F3F4F3F87A2
:10077C002E87F70120803180428016FF03C04B2D5D
:10078C0050E002C04FEF5FEF842DB1010E94520A7E
:10079C005C011068EE84FF8413FD1DC0802F90E077
:1007AC00A816B906C0F4B60180E290E00E943109A7
:1007BC000150F4CFF101849147FC8081FFEF2F1A97
:1007CC003F0A4F0AB60190E00E9431090111015015
:1007DC0021E0A21AB108A114B10461F7F5C0843666
:1007EC0011F0893671F5F70117FF08C0608171812E
:1007FC008281938197012C5F3F4F09C06081718189
:10080C00072E000C880B990B97012E5F3F4F790137
:10081C001F76312E97FF0AC0909580957095619543
:10082C007F4F8F4F9F4F312F3068332E2AE030E0AF
:10083C00AE014F5F5F4F0E94E107482E4C85441A72
:10084C004AC0853729F41F7EA12E2AE030E025C04E
:10085C00512F597FA52E8F36C1F018F4883579F0B9
:10086C00BDC0803719F0883721F0B8C0852F806162
:10087C00A82EA4FE0DC09A2D9460A92E09C014FFB9
:10088C000AC0A52FA660AA2E06C028E030E005C03D
:10089C0020E130E002C020E132E0F701A7FE08C001
:1008AC006081718182819381A7014C5F5F4F07C08A
:1008BC006081718180E090E0A7014E5F5F4F7A010B
:1008CC00AE014F5F5F4F0E94E107482E5C85451AD1
:1008DC008A2D8F77382E36FE0DC0932D9E7FA92E34
:1008EC004B1458F434FE0BC032FC09C0A32DAE7E61
:1008FC00AA2E05C0142DA32C03C0142D01C01B2D32
:10090C00A4FE0EC0FE01E40DF11D8081803321F4A4
:10091C00EA2DE97EAE2E08C0A2FE05C01E5F04C003
:10092C008A2D867809F01F5FA3FC11C0A0FE06C0BB
:10093C00101788F4040DB02EB11A0EC0101760F405
:10094C00B60180E290E00E9431091F5FF7CF1017CB
:10095C0018F4011B02C0B42C00E0A4FE10C0B601B8
:10096C0080E390E00E943109A2FE17C0A1FC03C0F5
:10097C0088E790E002C088E590E0B6010CC08A2DB3
:10098C00867859F0A1FE02C08BE201C080E2A7FC80
:10099C008DE2B60190E00E9431094B1438F4B60197
:1009AC0080E390E00E943109BA94F7CF4A94E1E0D9
:1009BC00F0E0EC0FFD1FE40DF11D8081B60190E01D
:1009CC000E9431094110F2CF002309F430CEB60158
:1009DC0080E290E00E9431090150F6CFF601878148
:1009EC00908502C08FEF9FEF62960FB6F894DEBF32
:1009FC000FBECDBFDF91CF911F910F91FF90EF9064
:100A0C00DF90CF90BF90AF909F908F907F906F9022
:080A1C004F903F902F900895C8
:100A2400CF93DF9300D000D000D0CDB7DEB78CE3F6
:100A340090E09A8389838EE390E09C838B838DE39B
:100A440090E09E838D8380912201811107C0809163
:100A540036010E94CE0981E0809322018091360103
:100A640081115FC080913C01803109F0B8C01092BF
:100A74006F002FEF30E782E0215030408040E1F7F3
:100A840000C0000090913B0180913901981768F4EF
:100A9400BE016F5F7F4F8DE091E00E94820781E08D
:100AA400809336010E94CE092DC090913B01891795
:100AB40068F4BE016D5F7F4F8DE091E00E94820774
:100AC40081E0809336010E94CE091CC090913B01C5
:100AD400891318C0BE016B5F7F4F8DE091E00E94C7
:100AE400820781E0809336010E94CE099AEA26EEBD
:100AF40036E981E09150204030408040D9F7000031
:100B04000E94D8069FEF20E732E091502040304009
:100B1400E1F700C0000010923A0182E080936F0078
:100B24005EC080913C01803109F059C010926F0081
:100B34008FEF90E722E0815090402040E1F700C021
:100B4400000090913B0180913801981768F4BE0130
:100B54006F5F7F4F81E091E00E948207109236011F
:100B640080E00E94CE092DC090913B01891768F462
:100B7400BE016D5F7F4F81E091E00E948207109279
:100B8400360180E00E94CE091CC090913B0189137C
:100B940018C0BE016B5F7F4F81E091E00E94820725
:100BA4001092360180E00E94CE093AEA86EE96E978
:100BB40021E03150804090402040D9F700000E944D
:100BC400D80610923A013FEF80E792E0315080401E
:100BD4009040E1F700C0000082E080936F008091B4
:100BE4003C018B3021F4809136010E94CE09809122
:100BF4003C018C3011F40E94D8062FEF31EE84E0D2
:100C0400215030408040E1F700C0000026960FB626
:0E0C1400F894DEBF0FBECDBFDF91CF910895E3
:100C2200CF93DF93CDB7DEB7C654D1090FB6F89490
:100C3200DEBF0FBECDBF20E031E040E082E1F9012E
:100C4200DE011196742F0E942E0B22E131E040E06A
:100C520082E1F901DE015396742F0E942E0B24E2E9
:100C620031E040E080E1F901DE019596742F0E94A7
:100C72002E0B24E331E040E080E1F901DE01D5965C
:100C8200742F0E942E0B80E290E027969FAF8EAFCA
:100C9200279780913C018E3071F48091240181115B
:100CA2000AC081E080932401BE016B5D7F4F86E123
:100CB20091E00E94820780913C018F3071F4809113
:100CC200230181110AC081E080932301BE016B5C84
:100CD2007F4F80E191E00E94820780912401882366
:100CE20031F180912301882311F18091000190E07C
:100CF2000E9490086091390170E089E191E00E94C0
:100D02006D096091380170E083E191E00E946D0904
:100D120060E070E086E191E00E946D0960E070E0C1
:100D220080E191E00E946D0981E08093370180911A
:100D32002401811117C0BE016B5B7F4F86E191E0F8
:100D42000E9482072FEF85EA9EE02150804090406A
:100D5200E1F700C00000BE016F5F7F4F86E191E0C6
:100D62000E94820780912301811117C0BE016D5E2E
:100D72007F4F80E191E00E9482072FEF85EA9EE09B
:100D8200215080409040E1F700C00000BE016B5B43
:100D92007F4F80E191E00E948207CA5BDF4F0FB66E
:0E0DA200F894DEBF0FBECDBFDF91CF91089554
:100DB000CF93DF93CDB7DEB7A6970FB6F894DEBF1B
:100DC0000FBECDBF8091000190E00E94900820EE00
:100DD00030E040E088E0F901DE011196742F0E94B6
:100DE0002E0B28EE30E040E088E0F901DE01199694
:100DF000742F0E942E0B20EF30E040E088E0F901D4
:100E0000DE015196742F0E942E0B28EF30E040E057
:100E100088E0F901DE015996742F0E942E0B8FEFA6
:100E20009FEF9AA389A38FEF90E09CA38BA380E20E
:100E300090E09EA38DA3BE016B5D7F4F8DE091E09E
:100E40000E948207BE016B5D7F4F81E091E00E94AE
:100E50008207BE016F5F7F4F8FE191E00E948207A2
:100E6000BE01675F7F4F8CE191E00E948207BE0167
:100E70006B5D7F4F86E191E00E948207BE016B5D52
:100E80007F4F86E191E00E948207CE0141960E9449
:100E9000B60ACE0181960E94B60ACE0149960E94FA
:100EA000B60ACE0181960E94B60A109237011092BE
:100EB0003B0110923C010E948B08992763E670E089
:100EC0000E94CC0A8A3010F49AE001C090E0890FA9
:100ED000809339010E948B08992763E670E00E9495
:100EE000CC0A8A3010F49AE001C090E0890F809318
:100EF0003801A6960FB6F894DEBF0FBECDBFDF91C6
:040F0000CF910895F0
:100F0400CF92DF92EF920F931F93CF93DF93CDB7DE
:100F1400DEB7EA970FB6F894DEBF0FBECDBFAC01C3
:100F24008B0182E290E09CAB8BAB0F2EF4E4CF2ECE
:100F3400F1E0DF2EF0E0EF2EF02D86E0F601DE0189
:100F4400D5967E2D0E942E0B60E8CE0101960E945C
:100F5400030BAE014B5C5F4F60E8CE0101960E942B
:100F6400880A6E0183E3C80ED11C80E8E82E6E2D3A
:100F7400A601CE0101960E94880AA80160E8CE016C
:100F840001960E94880A6E2DA601CE0101960E9448
:100F9400880ACE0101960E94B60A85E091E00E947B
:100FA400B60AEA960FB6F894DEBF0FBECDBFDF9146
:0E0FB400CF911F910F91EF90DF90CF90089595
:100FC200FA01AA27283051F1203181F1E8946F9378
:100FD2006E7F6E5F7F4F8F4F9F4FAF4FB1E03ED01E
:100FE200B4E03CD0670F781F891F9A1FA11D680FBC
:100FF200791F8A1F911DA11D6A0F711D811D911DEF
:10100200A11D20D009F468943F912AE0269F112463
:101012003019305D3193DEF6CF010895462F4770C7
:10102200405D4193B3E00FD0C9F7F6CF462F4F7022
:10103200405D4A3318F0495D31FD4052419302D080
:10104200A9F7EACFB4E0A695979587957795679526
:10105200BA95C9F700976105710508959B01AC0126
:101062000A2E06945795479537952795BA95C9F74D
:0C107200620F731F841F951FA01D0895BE
:10107E008F929F92AF92BF92CF92DF92EF92FF929A
:10108E00CF93DF93EC01688179818A819B81611511
:10109E0071058105910521F464E279ED8BE597E008
:1010AE002DE133EF41E050E00E949F0A49015A01C1
:1010BE009B01AC01A7EAB1E40E94460B6B017C01D7
:1010CE00ACEEB4EFA50194010E945C0BDC01CB01E8
:1010DE008C0D9D1DAE1DBF1DB7FF03C00197A1094D
:1010EE00B04888839983AA83BB839F77DF91CF9182
:1010FE00FF90EF90DF90CF90BF90AF909F908F902A
:10110E0008950E943F08089589E091E00E943F08EB
:10111E000895A0E0B0E0E9E0F1E080839183A2833E
:04112E00B3830895EA
:1011320084B1806284B987B1806487B98AB18460DE
:101142008AB98AB188608AB98AB180618AB98AB15A
:1011520080628AB98AB18F7B8AB98AB18F778AB95C
:1011620084B18E7F84B984B18D7F84B91BB815B8E0
:101172008BB184608BB910928000E1E8F0E080814D
:101182008460808380818D7F808380818E7F808355
:10119200109285001092840088EE93E0909389006B
:1011A2008093880082E080936F00789487E690E0D5
:1011B2000E943B0B0E94D80680913701811103C027
:0C11C2000E941106F9CF0E941205F6CF22
:1011CE0010926F0080933C0190913701992379F131
:1011DE0090913A0191110DC08A30B0F4880F982F7A
:1011EE00990F990F890F80933B0181E080933A010B
:1011FE000BC08A3048F490913C0180913B01890FDD
:10120E0080933B0110923A0180913601811108C002
:10121E0060913B0170E086E191E00E946D0907C08C
:10122E0060913B0170E080E191E00E946D0985B113
:10123E00806285B92FEF81EE94E02150804090407E
:10124E00E1F700C0000085B18F7D85B982E0809303
:04125E006F00089580
:101262000F931F93CF93DF93FB01248121FD03C0D2
:101272008FEF9FEF2CC022FF16C04781508525813A
:1012820036814217530744F4A081B1819D012F5F3B
:101292003F4F318320838C93278130852F5F3F4FCF
:1012A2003087278314C08B01EC01FB010184F28596
:1012B200E02D0995892BE1F6D80117968D919C9125
:1012C2001897019618969C938E931797CE01DF91EB
:0812D200CF911F910F910895C7
:1012DA00EF92FF920F931F93CF93DF93CDB7DEB7B1
:1012EA00E2970FB6F894DEBF0FBECDBF7C017F93A5
:1012FA006F938AE491E0A0E0AF939F938F938E015E
:10130A000F5F1F4F1F930F930E94F109B801C70186
:10131A000E9482070FB6F894DEBF0FBECDBFE296D9
:10132A000FB6F894DEBF0FBECDBFDF91CF911F91EC
:08133A000F91FF90EF90089560
:101342001F920F920FB60F9211242F933F934F9338
:101352005F936F937F938F939F93AF93BF93EF931B
:10136200FF930E94A700809100018F5F809300018C
:101372001092850010928400FF91EF91BF91AF917E
:101382009F918F917F916F915F914F913F912F919B
:0A1392000F900FBE0F901F901895EA
:10139C00CF93DF9300D0CDB7DEB720E330E03A83B4
:1013AC00298310923B0110923C01811108C0BE01AF
:1013BC006F5F7F4F86E191E00E94820707C0BE01FC
:1013CC006F5F7F4F80E191E00E9482070F900F903A
:0613DC00DF91CF9108959E
:1013E200AFE0B0E0E7EFF9E00C94440A0E891F8900
:1013F20086E08D831A8309838FEF9FE79F838E8315
:101402009E01255E3F4F488D598D6A8DCE01019612
:101412000E94EE02E885F985E00FF11F10822F96F7
:06142200E4E00C947B0ADB
:10142800A1E21A2EAA1BBB1BFD010DC0AA1FBB1FE0
:10143800EE1FFF1FA217B307E407F50720F0A21B52
:10144800B30BE40BF50B661F771F881F991F1A94BF
:1014580069F760957095809590959B01AC01BD01E9
:04146800CF01089513
:10146C002F923F924F925F926F927F928F929F92A8
:10147C00AF92BF92CF92DF92EF92FF920F931F9396
:10148C00CF93DF93CDB7DEB7CA1BDB0B0FB6F89447
:08149C00DEBF0FBECDBF0994B5
:1014A400CF92DF92EF926B01E82EA82FCB0141156A
:1014B400510531F48C199D09EF90DF90CF90089578
:1014C400FC012491A7FD20812223A1F30196A11DF3
:0614D40041505109ECCF6C
:1014DA002A88398848885F846E847D848C849B84BA
:1014EA00AA84B984C884DF80EE80FD800C811B81C8
:1014FA00AA81B981CE0FD11D0FB6F894DEBF0FBEF7
:06150A00CDBFED010895C4
:101510009A01462FDC01BD016F5F7F4F5C9155231F
:1015200011F0DB01F8CFF901549147FD50815D9333
:0E153000552321F02F5F3F4F4F4FF5CF089509
:10153E00052E97FB1EF400940E94510B57FD07D009
:10154E000E94140A07FC03D04EF40C94510B5095D4
:0E155E004095309521953F4F4F4F5F4F0895B8
:10156C000F931F93CF93DF938C01C0E0D0E003C0A7
:10157C000E94210B2196F801EC0FFD1F8081811137
:0C158C00F7CFDF91CF911F910F910895D0
:1015980097FB072E16F4009407D077FD09D00E9418
:1015A800E00A07FC05D03EF4909581959F4F089579
:0815B800709561957F4F0895C5
:1015C000AA1BBB1B51E107C0AA1FBB1FA617B70769
:1015D00010F0A61BB70B881F991F5A95A9F7809585
:0815E0009095BC01CD010895B6
:1015E8001F920F920FB60F9211248F9381E0809370
:0E15F8003D018F910F900FBE0F901F90189520
:101606009A01462FDC01F901549147FD50815D9303
:0E161600552321F02F5F3F4F4F4FF5CF089522
:10162400A29FB001B39FC001A39F700D811D11241F
:0E163400911DB29F700D811D1124911D08950E
:1016420010923D019091C00095FFFCCF90913D0119
:0A165200913011F08093C600089556
:10165C00992777FD05C005900D920197E1F7089544
:0A166C0001900D920197E1F7089537
:101676009093C5008093C40088E08093C10086E003
:061686008093C2000895EC
:10168C000E94120BA59F900DB49F900DA49F800DEE
:06169C00911D11240895C8
:1016A20090958095709561957F4F8F4F9F4F0895CC
:1016B200B7FF0C94460B0E94460B821B930B0895B6
:0416C2000C94000084
:0416C600743130004B
:0416CA00FFFFFF001F
:0416CE000100000017
:0316D20074390068
:0316D5007434006A
:0316D80074320069
:0316DB0074350063
:0316DE007437005E
:0316E1007433005F
:0316E40074360059
:0116E7000101
:00000001FF
